:1000000011C0DEC01DC01CC01BC01AC0B4C018C0C7
:1000100017C016C059C065C071C07EC08BC098C0E3
:10002000A5C0A7C011241FBECFE9CDBF20E0A0E628
:10003000B0E001C01D92A436B207E1F713D0CAC0E8
:10004000DFCF8BB780648BBF85B7806185BF85B7F5
:10005000806285BF88958BB78F7B8BBF85B78F7D7F
:1000600085BF089587B38D6087BB8FB582608FBDD4
:1000700083B7826083BF80E986BF89B7846089BF08
:100080007894DFDF80E090E0DC01E0E0F0E00F2E2C
:10009000F6E0CF2EF02DD12C0F2EF5E0EF2EF02D27
:1000A000F12C03E010E0D1E0C0E00BC0ED2FFC2FFD
:1000B00008C0E02FF12F05C0EE2DFF2D02C0EC2D62
:1000C000FD2DE65FFF4F0994C09A809160009091EA
:1000D0006100A0916200B09163008C509E4FAF4FC1
:1000E000BF4F40916000509161006091620070913B
:1000F0006300481759076A077B07C0F2C098C29A85
:100100008091600090916100A0916200B0916300C5
:100110008C509E4FAF4FBF4F409160005091610097
:100120006091620070916300481759076A077B0766
:1001300008F4BFCFC298C39A80916000909161008B
:10014000A0916200B09163008C509E4FAF4FBF4FA3
:100150004091600050916100609162007091630075
:10016000481759076A077B0708F4A6CF18BAB19B4E
:10017000A6CF67DFA9CF1F920F920FB60F9211245F
:100180008F939F93AF93BF93809160009091610094
:10019000A0916200B09163000196A11DB11D8093F2
:1001A000600090936100A0936200B0936300BF91E0
:1001B000AF919F918F910F900FBE0F901F90189548
:1001C0001F920F920FB60F9211240F900FBE0F9037
:0801D0001F901895F894FFCF71
:00000001FF
